{
  "_format": "hh-sol-artifact-1",
  "contractName": "SwapTokens",
  "sourceName": "contracts/SwapTokens.sol",
  "abi": [
    {
      "inputs": [
        {
          "internalType": "address",
          "name": "_tokenI",
          "type": "address"
        },
        {
          "internalType": "address",
          "name": "_tokenG",
          "type": "address"
        }
      ],
      "stateMutability": "nonpayable",
      "type": "constructor"
    },
    {
      "anonymous": false,
      "inputs": [
        {
          "indexed": true,
          "internalType": "address",
          "name": "owner1",
          "type": "address"
        },
        {
          "indexed": true,
          "internalType": "address",
          "name": "owner2",
          "type": "address"
        },
        {
          "indexed": false,
          "internalType": "uint256",
          "name": "amountToken",
          "type": "uint256"
        }
      ],
      "name": "Swapped",
      "type": "event"
    },
    {
      "inputs": [
        {
          "internalType": "address",
          "name": "_owner1",
          "type": "address"
        },
        {
          "internalType": "address",
          "name": "_owner2",
          "type": "address"
        },
        {
          "internalType": "uint256",
          "name": "amountToTransfer",
          "type": "uint256"
        }
      ],
      "name": "swap",
      "outputs": [
        {
          "internalType": "bool",
          "name": "",
          "type": "bool"
        }
      ],
      "stateMutability": "nonpayable",
      "type": "function"
    },
    {
      "inputs": [],
      "name": "tokenG",
      "outputs": [
        {
          "internalType": "contract TokenGMT",
          "name": "",
          "type": "address"
        }
      ],
      "stateMutability": "view",
      "type": "function"
    },
    {
      "inputs": [],
      "name": "tokenI",
      "outputs": [
        {
          "internalType": "contract TokenINT",
          "name": "",
          "type": "address"
        }
      ],
      "stateMutability": "view",
      "type": "function"
    }
  ],
  "bytecode": "0x608060405234801561001057600080fd5b50604051610c8a380380610c8a8339818101604052810190610032919061011d565b816000806101000a81548173ffffffffffffffffffffffffffffffffffffffff021916908373ffffffffffffffffffffffffffffffffffffffff16021790555080600160006101000a81548173ffffffffffffffffffffffffffffffffffffffff021916908373ffffffffffffffffffffffffffffffffffffffff160217905550505061015d565b600080fd5b600073ffffffffffffffffffffffffffffffffffffffff82169050919050565b60006100ea826100bf565b9050919050565b6100fa816100df565b811461010557600080fd5b50565b600081519050610117816100f1565b92915050565b60008060408385031215610134576101336100ba565b5b600061014285828601610108565b925050602061015385828601610108565b9150509250929050565b610b1e8061016c6000396000f3fe608060405234801561001057600080fd5b50600436106100415760003560e01c80638be17d6b14610046578063c2bc153b14610064578063df791e5014610082575b600080fd5b61004e6100b2565b60405161005b9190610616565b60405180910390f35b61006c6100d8565b6040516100799190610652565b60405180910390f35b61009c600480360381019061009791906106e6565b6100fc565b6040516100a99190610754565b60405180910390f35b600160009054906101000a900473ffffffffffffffffffffffffffffffffffffffff1681565b60008054906101000a900473ffffffffffffffffffffffffffffffffffffffff1681565b6000808211610140576040517f08c379a0000000000000000000000000000000000000000000000000000000008152600401610137906107f2565b60405180910390fd5b8373ffffffffffffffffffffffffffffffffffffffff163373ffffffffffffffffffffffffffffffffffffffff1614806101a557508273ffffffffffffffffffffffffffffffffffffffff163373ffffffffffffffffffffffffffffffffffffffff16145b6101e4576040517f08c379a00000000000000000000000000000000000000000000000000000000081526004016101db9061085e565b60405180910390fd5b8160008054906101000a900473ffffffffffffffffffffffffffffffffffffffff1673ffffffffffffffffffffffffffffffffffffffff166370a08231866040518263ffffffff1660e01b815260040161023e919061088d565b602060405180830381865afa15801561025b573d6000803e3d6000fd5b505050506040513d601f19601f8201168201806040525081019061027f91906108bd565b10158015610328575081600160009054906101000a900473ffffffffffffffffffffffffffffffffffffffff1673ffffffffffffffffffffffffffffffffffffffff166370a08231856040518263ffffffff1660e01b81526004016102e4919061088d565b602060405180830381865afa158015610301573d6000803e3d6000fd5b505050506040513d601f19601f8201168201806040525081019061032591906108bd565b10155b610367576040517f08c379a000000000000000000000000000000000000000000000000000000000815260040161035e90610936565b60405180910390fd5b60008054906101000a900473ffffffffffffffffffffffffffffffffffffffff1673ffffffffffffffffffffffffffffffffffffffff1663beabacc88585856040518463ffffffff1660e01b81526004016103c493929190610965565b6020604051808303816000875af11580156103e3573d6000803e3d6000fd5b505050506040513d601f19601f8201168201806040525081019061040791906109c8565b610446576040517f08c379a000000000000000000000000000000000000000000000000000000000815260040161043d90610a41565b60405180910390fd5b600160009054906101000a900473ffffffffffffffffffffffffffffffffffffffff1673ffffffffffffffffffffffffffffffffffffffff1663beabacc88486856040518463ffffffff1660e01b81526004016104a593929190610965565b6020604051808303816000875af11580156104c4573d6000803e3d6000fd5b505050506040513d601f19601f820116820180604052508101906104e891906109c8565b610527576040517f08c379a000000000000000000000000000000000000000000000000000000000815260040161051e90610aad565b60405180910390fd5b8273ffffffffffffffffffffffffffffffffffffffff168473ffffffffffffffffffffffffffffffffffffffff167f2e7f8a64aa3240292c0adfa332e1e8945dd31589fcb0bce2721fa21c69b1390f846040516105849190610acd565b60405180910390a3600190509392505050565b600073ffffffffffffffffffffffffffffffffffffffff82169050919050565b6000819050919050565b60006105dc6105d76105d284610597565b6105b7565b610597565b9050919050565b60006105ee826105c1565b9050919050565b6000610600826105e3565b9050919050565b610610816105f5565b82525050565b600060208201905061062b6000830184610607565b92915050565b600061063c826105e3565b9050919050565b61064c81610631565b82525050565b60006020820190506106676000830184610643565b92915050565b600080fd5b600061067d82610597565b9050919050565b61068d81610672565b811461069857600080fd5b50565b6000813590506106aa81610684565b92915050565b6000819050919050565b6106c3816106b0565b81146106ce57600080fd5b50565b6000813590506106e0816106ba565b92915050565b6000806000606084860312156106ff576106fe61066d565b5b600061070d8682870161069b565b935050602061071e8682870161069b565b925050604061072f868287016106d1565b9150509250925092565b60008115159050919050565b61074e81610739565b82525050565b60006020820190506107696000830184610745565b92915050565b600082825260208201905092915050565b7f416d6f756e7473206d7573742062652067726561746572207468616e207a657260008201527f6f00000000000000000000000000000000000000000000000000000000000000602082015250565b60006107dc60218361076f565b91506107e782610780565b604082019050919050565b6000602082019050818103600083015261080b816107cf565b9050919050565b7f4e6f7420417574686f7269736564000000000000000000000000000000000000600082015250565b6000610848600e8361076f565b915061085382610812565b602082019050919050565b600060208201905081810360008301526108778161083b565b9050919050565b61088781610672565b82525050565b60006020820190506108a2600083018461087e565b92915050565b6000815190506108b7816106ba565b92915050565b6000602082840312156108d3576108d261066d565b5b60006108e1848285016108a8565b91505092915050565b7f496e73756666696369656e742062616c616e6365000000000000000000000000600082015250565b600061092060148361076f565b915061092b826108ea565b602082019050919050565b6000602082019050818103600083015261094f81610913565b9050919050565b61095f816106b0565b82525050565b600060608201905061097a600083018661087e565b610987602083018561087e565b6109946040830184610956565b949350505050565b6109a581610739565b81146109b057600080fd5b50565b6000815190506109c28161099c565b92915050565b6000602082840312156109de576109dd61066d565b5b60006109ec848285016109b3565b91505092915050565b7f4661696c656420746f207472616e7366657220546f6b656e494e540000000000600082015250565b6000610a2b601b8361076f565b9150610a36826109f5565b602082019050919050565b60006020820190508181036000830152610a5a81610a1e565b9050919050565b7f4661696c656420746f207472616e7366657220546f6b656e474d540000000000600082015250565b6000610a97601b8361076f565b9150610aa282610a61565b602082019050919050565b60006020820190508181036000830152610ac681610a8a565b9050919050565b6000602082019050610ae26000830184610956565b9291505056fea2646970667358221220e15ad614fb1125f60a8873dc41314add48865b9b2d03635986b9fc56a3031f5464736f6c63430008180033",
  "linkReferences": {},
  "deployedLinkReferences": {}
}